{
  "_format": "hh-sol-artifact-1",
  "contractName": "Coffee",
  "sourceName": "contracts/Coffee.sol",
  "abi": [
    {
      "inputs": [],
      "stateMutability": "payable",
      "type": "constructor"
    },
    {
      "anonymous": false,
      "inputs": [
        {
          "indexed": false,
          "internalType": "uint256",
          "name": "id",
          "type": "uint256"
        },
        {
          "indexed": false,
          "internalType": "string",
          "name": "username",
          "type": "string"
        },
        {
          "indexed": false,
          "internalType": "address payable",
          "name": "walletAddress",
          "type": "address"
        },
        {
          "indexed": false,
          "internalType": "string",
          "name": "ipfsHash",
          "type": "string"
        },
        {
          "indexed": false,
          "internalType": "string",
          "name": "userbio",
          "type": "string"
        },
        {
          "indexed": false,
          "internalType": "uint256",
          "name": "donationsReceived",
          "type": "uint256"
        },
        {
          "indexed": false,
          "internalType": "uint256",
          "name": "supporters",
          "type": "uint256"
        }
      ],
      "name": "CreatorEvent",
      "type": "event"
    },
    {
      "anonymous": false,
      "inputs": [
        {
          "indexed": true,
          "internalType": "address",
          "name": "from",
          "type": "address"
        },
        {
          "indexed": false,
          "internalType": "uint256",
          "name": "timestamp",
          "type": "uint256"
        },
        {
          "indexed": false,
          "internalType": "string",
          "name": "message",
          "type": "string"
        }
      ],
      "name": "SupporterEvent",
      "type": "event"
    },
    {
      "inputs": [],
      "name": "creatorCounter",
      "outputs": [
        {
          "internalType": "uint256",
          "name": "",
          "type": "uint256"
        }
      ],
      "stateMutability": "view",
      "type": "function"
    },
    {
      "inputs": [
        {
          "internalType": "uint256",
          "name": "index",
          "type": "uint256"
        },
        {
          "internalType": "uint256",
          "name": "amount",
          "type": "uint256"
        }
      ],
      "name": "creatorWithdrawTip",
      "outputs": [
        {
          "internalType": "address payable",
          "name": "_creatorAddress",
          "type": "address"
        }
      ],
      "stateMutability": "nonpayable",
      "type": "function"
    },
    {
      "inputs": [],
      "name": "getCreatorList",
      "outputs": [
        {
          "components": [
            {
              "internalType": "uint256",
              "name": "id",
              "type": "uint256"
            },
            {
              "internalType": "string",
              "name": "username",
              "type": "string"
            },
            {
              "internalType": "string",
              "name": "ipfsHash",
              "type": "string"
            },
            {
              "internalType": "address payable",
              "name": "walletAddress",
              "type": "address"
            },
            {
              "internalType": "string",
              "name": "userbio",
              "type": "string"
            },
            {
              "internalType": "uint256",
              "name": "donationsReceived",
              "type": "uint256"
            },
            {
              "internalType": "uint256",
              "name": "supporters",
              "type": "uint256"
            }
          ],
          "internalType": "struct Coffee.CreatorInfo[]",
          "name": "",
          "type": "tuple[]"
        }
      ],
      "stateMutability": "view",
      "type": "function"
    },
    {
      "inputs": [],
      "name": "owner",
      "outputs": [
        {
          "internalType": "address payable",
          "name": "",
          "type": "address"
        }
      ],
      "stateMutability": "view",
      "type": "function"
    },
    {
      "inputs": [
        {
          "internalType": "string",
          "name": "_message",
          "type": "string"
        },
        {
          "internalType": "uint256",
          "name": "_index",
          "type": "uint256"
        }
      ],
      "name": "sendTip",
      "outputs": [],
      "stateMutability": "payable",
      "type": "function"
    },
    {
      "inputs": [
        {
          "internalType": "string",
          "name": "_username",
          "type": "string"
        },
        {
          "internalType": "string",
          "name": "_ipfsHash",
          "type": "string"
        },
        {
          "internalType": "string",
          "name": "_userbio",
          "type": "string"
        }
      ],
      "name": "setCreatorDetail",
      "outputs": [],
      "stateMutability": "nonpayable",
      "type": "function"
    }
  ],
  "bytecode": "0x608060405233600260006101000a81548173ffffffffffffffffffffffffffffffffffffffff021916908373ffffffffffffffffffffffffffffffffffffffff160217905550611806806100546000396000f3fe6080604052600436106100555760003560e01c8063656023e61461005a578063746614a8146100835780638da5cb5b146100c0578063c43ad481146100eb578063c580ec0a14610116578063c92d723114610132575b600080fd5b34801561006657600080fd5b50610081600480360381019061007c9190610be3565b61015d565b005b34801561008f57600080fd5b506100aa60048036038101906100a59190610cc0565b6104a1565b6040516100b79190610d41565b60405180910390f35b3480156100cc57600080fd5b506100d56106a0565b6040516100e29190610d41565b60405180910390f35b3480156100f757600080fd5b506101006106c6565b60405161010d9190610d6b565b60405180910390f35b610130600480360381019061012b9190610d86565b6106cc565b005b34801561013e57600080fd5b506101476107dc565b6040516101549190610feb565b60405180910390f35b600083511161016b57600080fd5b600082511161017957600080fd5b600081511161018757600080fd5b60008060001515600360003373ffffffffffffffffffffffffffffffffffffffff1673ffffffffffffffffffffffffffffffffffffffff16815260200190815260200160002060009054906101000a900460ff1615151461021d576040517f08c379a00000000000000000000000000000000000000000000000000000000081526004016102149061106a565b60405180910390fd5b6000151560048660405161023191906110c6565b908152602001604051809103902060009054906101000a900460ff1615151461028f576040517f08c379a000000000000000000000000000000000000000000000000000000000815260040161028690611129565b60405180910390fd5b60056040518060e001604052806102a66000610a65565b81526020018781526020018681526020013373ffffffffffffffffffffffffffffffffffffffff16815260200185815260200184815260200183815250908060018154018082558091505060019003906000526020600020906007020160009091909190915060008201518160000155602082015181600101908161032b9190611355565b5060408201518160020190816103419190611355565b5060608201518160030160006101000a81548173ffffffffffffffffffffffffffffffffffffffff021916908373ffffffffffffffffffffffffffffffffffffffff160217905550608082015181600401908161039e9190611355565b5060a0820151816005015560c0820151816006015550506001600360003373ffffffffffffffffffffffffffffffffffffffff1673ffffffffffffffffffffffffffffffffffffffff16815260200190815260200160002060006101000a81548160ff021916908315150217905550600160048660405161041f91906110c6565b908152602001604051809103902060006101000a81548160ff0219169083151502179055507fdd070d78037abac0130f39b08d4e63b1c8680b7e91e130048e5f04cf439b09d061046f6000610a65565b8633878787876040516104889796959493929190611460565b60405180910390a161049a6000610a73565b5050505050565b600080600584815481106104b8576104b76114e4565b5b9060005260206000209060070201905060008160050154905060008260030160009054906101000a900473ffffffffffffffffffffffffffffffffffffffff169050846005878154811061050f5761050e6114e4565b5b9060005260206000209060070201600501600082825461052f9190611542565b9250508190555081851115610579576040517f08c379a0000000000000000000000000000000000000000000000000000000008152600401610570906115c2565b60405180910390fd5b8073ffffffffffffffffffffffffffffffffffffffff163373ffffffffffffffffffffffffffffffffffffffff16146105e7576040517f08c379a00000000000000000000000000000000000000000000000000000000081526004016105de9061162e565b60405180910390fd5b60008173ffffffffffffffffffffffffffffffffffffffff168660405161060d9061167f565b60006040518083038185875af1925050503d806000811461064a576040519150601f19603f3d011682016040523d82523d6000602084013e61064f565b606091505b5050905080610693576040517f08c379a000000000000000000000000000000000000000000000000000000000815260040161068a906116e0565b60405180910390fd5b8194505050505092915050565b600260009054906101000a900473ffffffffffffffffffffffffffffffffffffffff1681565b60015481565b34600582815481106106e1576106e06114e4565b5b906000526020600020906007020160050160008282546107019190611700565b9250508190555060016005828154811061071e5761071d6114e4565b5b9060005260206000209060070201600601600082825461073e9190611700565b9250508190555060003411610788576040517f08c379a000000000000000000000000000000000000000000000000000000000815260040161077f90611780565b60405180910390fd5b3373ffffffffffffffffffffffffffffffffffffffff167fd6a897edbe2f5bae63386e323f717069a8974221d9297299ac544cace2d0f99242846040516107d09291906117a0565b60405180910390a25050565b60606005805480602002602001604051908101604052809291908181526020016000905b82821015610a5c57838290600052602060002090600702016040518060e00160405290816000820154815260200160018201805461083d90611178565b80601f016020809104026020016040519081016040528092919081815260200182805461086990611178565b80156108b65780601f1061088b576101008083540402835291602001916108b6565b820191906000526020600020905b81548152906001019060200180831161089957829003601f168201915b505050505081526020016002820180546108cf90611178565b80601f01602080910402602001604051908101604052809291908181526020018280546108fb90611178565b80156109485780601f1061091d57610100808354040283529160200191610948565b820191906000526020600020905b81548152906001019060200180831161092b57829003601f168201915b505050505081526020016003820160009054906101000a900473ffffffffffffffffffffffffffffffffffffffff1673ffffffffffffffffffffffffffffffffffffffff1673ffffffffffffffffffffffffffffffffffffffff1681526020016004820180546109b790611178565b80601f01602080910402602001604051908101604052809291908181526020018280546109e390611178565b8015610a305780601f10610a0557610100808354040283529160200191610a30565b820191906000526020600020905b815481529060010190602001808311610a1357829003601f168201915b505050505081526020016005820154815260200160068201548152505081526020019060010190610800565b50505050905090565b600081600001549050919050565b6001816000016000828254019250508190555050565b6000604051905090565b600080fd5b600080fd5b600080fd5b600080fd5b6000601f19601f8301169050919050565b7f4e487b7100000000000000000000000000000000000000000000000000000000600052604160045260246000fd5b610af082610aa7565b810181811067ffffffffffffffff82111715610b0f57610b0e610ab8565b5b80604052505050565b6000610b22610a89565b9050610b2e8282610ae7565b919050565b600067ffffffffffffffff821115610b4e57610b4d610ab8565b5b610b5782610aa7565b9050602081019050919050565b82818337600083830152505050565b6000610b86610b8184610b33565b610b18565b905082815260208101848484011115610ba257610ba1610aa2565b5b610bad848285610b64565b509392505050565b600082601f830112610bca57610bc9610a9d565b5b8135610bda848260208601610b73565b91505092915050565b600080600060608486031215610bfc57610bfb610a93565b5b600084013567ffffffffffffffff811115610c1a57610c19610a98565b5b610c2686828701610bb5565b935050602084013567ffffffffffffffff811115610c4757610c46610a98565b5b610c5386828701610bb5565b925050604084013567ffffffffffffffff811115610c7457610c73610a98565b5b610c8086828701610bb5565b9150509250925092565b6000819050919050565b610c9d81610c8a565b8114610ca857600080fd5b50565b600081359050610cba81610c94565b92915050565b60008060408385031215610cd757610cd6610a93565b5b6000610ce585828601610cab565b9250506020610cf685828601610cab565b9150509250929050565b600073ffffffffffffffffffffffffffffffffffffffff82169050919050565b6000610d2b82610d00565b9050919050565b610d3b81610d20565b82525050565b6000602082019050610d566000830184610d32565b92915050565b610d6581610c8a565b82525050565b6000602082019050610d806000830184610d5c565b92915050565b60008060408385031215610d9d57610d9c610a93565b5b600083013567ffffffffffffffff811115610dbb57610dba610a98565b5b610dc785828601610bb5565b9250506020610dd885828601610cab565b9150509250929050565b600081519050919050565b600082825260208201905092915050565b6000819050602082019050919050565b610e1781610c8a565b82525050565b600081519050919050565b600082825260208201905092915050565b60005b83811015610e57578082015181840152602081019050610e3c565b60008484015250505050565b6000610e6e82610e1d565b610e788185610e28565b9350610e88818560208601610e39565b610e9181610aa7565b840191505092915050565b610ea581610d20565b82525050565b600060e083016000830151610ec36000860182610e0e565b5060208301518482036020860152610edb8282610e63565b91505060408301518482036040860152610ef58282610e63565b9150506060830151610f0a6060860182610e9c565b5060808301518482036080860152610f228282610e63565b91505060a0830151610f3760a0860182610e0e565b5060c0830151610f4a60c0860182610e0e565b508091505092915050565b6000610f618383610eab565b905092915050565b6000602082019050919050565b6000610f8182610de2565b610f8b8185610ded565b935083602082028501610f9d85610dfe565b8060005b85811015610fd95784840389528151610fba8582610f55565b9450610fc583610f69565b925060208a01995050600181019050610fa1565b50829750879550505050505092915050565b600060208201905081810360008301526110058184610f76565b905092915050565b600082825260208201905092915050565b7f4164647265737320616c72656164792065786973740000000000000000000000600082015250565b600061105460158361100d565b915061105f8261101e565b602082019050919050565b6000602082019050818103600083015261108381611047565b9050919050565b600081905092915050565b60006110a082610e1d565b6110aa818561108a565b93506110ba818560208601610e39565b80840191505092915050565b60006110d28284611095565b915081905092915050565b7f557365726e616d6520616c726561647920657869737400000000000000000000600082015250565b600061111360168361100d565b915061111e826110dd565b602082019050919050565b6000602082019050818103600083015261114281611106565b9050919050565b7f4e487b7100000000000000000000000000000000000000000000000000000000600052602260045260246000fd5b6000600282049050600182168061119057607f821691505b6020821081036111a3576111a2611149565b5b50919050565b60008190508160005260206000209050919050565b60006020601f8301049050919050565b600082821b905092915050565b60006008830261120b7fffffffffffffffffffffffffffffffffffffffffffffffffffffffffffffffff826111ce565b61121586836111ce565b95508019841693508086168417925050509392505050565b6000819050919050565b600061125261124d61124884610c8a565b61122d565b610c8a565b9050919050565b6000819050919050565b61126c83611237565b61128061127882611259565b8484546111db565b825550505050565b600090565b611295611288565b6112a0818484611263565b505050565b5b818110156112c4576112b960008261128d565b6001810190506112a6565b5050565b601f821115611309576112da816111a9565b6112e3846111be565b810160208510156112f2578190505b6113066112fe856111be565b8301826112a5565b50505b505050565b600082821c905092915050565b600061132c6000198460080261130e565b1980831691505092915050565b6000611345838361131b565b9150826002028217905092915050565b61135e82610e1d565b67ffffffffffffffff81111561137757611376610ab8565b5b6113818254611178565b61138c8282856112c8565b600060209050601f8311600181146113bf57600084156113ad578287015190505b6113b78582611339565b86555061141f565b601f1984166113cd866111a9565b60005b828110156113f5578489015182556001820191506020850194506020810190506113d0565b86831015611412578489015161140e601f89168261131b565b8355505b6001600288020188555050505b505050505050565b600061143282610e1d565b61143c818561100d565b935061144c818560208601610e39565b61145581610aa7565b840191505092915050565b600060e082019050611475600083018a610d5c565b81810360208301526114878189611427565b90506114966040830188610d32565b81810360608301526114a88187611427565b905081810360808301526114bc8186611427565b90506114cb60a0830185610d5c565b6114d860c0830184610d5c565b98975050505050505050565b7f4e487b7100000000000000000000000000000000000000000000000000000000600052603260045260246000fd5b7f4e487b7100000000000000000000000000000000000000000000000000000000600052601160045260246000fd5b600061154d82610c8a565b915061155883610c8a565b92508282039050818111156115705761156f611513565b5b92915050565b7f496e73756666696369656e742062616c00000000000000000000000000000000600082015250565b60006115ac60108361100d565b91506115b782611576565b602082019050919050565b600060208201905081810360008301526115db8161159f565b9050919050565b7f596f7520617265206e6f74207468652063726561746f72000000000000000000600082015250565b600061161860178361100d565b9150611623826115e2565b602082019050919050565b600060208201905081810360008301526116478161160b565b9050919050565b600081905092915050565b50565b600061166960008361164e565b915061167482611659565b600082019050919050565b600061168a8261165c565b9150819050919050565b7f4661696c656420746f2073656e64204574686572000000000000000000000000600082015250565b60006116ca60148361100d565b91506116d582611694565b602082019050919050565b600060208201905081810360008301526116f9816116bd565b9050919050565b600061170b82610c8a565b915061171683610c8a565b925082820190508082111561172e5761172d611513565b5b92915050565b7f496e73756666696369656e742062616c616e6365210000000000000000000000600082015250565b600061176a60158361100d565b915061177582611734565b602082019050919050565b600060208201905081810360008301526117998161175d565b9050919050565b60006040820190506117b56000830185610d5c565b81810360208301526117c78184611427565b9050939250505056fea2646970667358221220cb8927a3533bcf54f472f79a7267b5e363a67ea70cda21768a7e0b4f3c9afd6164736f6c63430008110033",
  "linkReferences": {},
  "deployedLinkReferences": {}
}