{
  "_format": "hh-sol-artifact-1",
  "contractName": "Coffee",
  "sourceName": "contracts/Coffee.sol",
  "abi": [
    {
      "inputs": [],
      "stateMutability": "payable",
      "type": "constructor"
    },
    {
      "anonymous": false,
      "inputs": [
        {
          "indexed": false,
          "internalType": "uint256",
          "name": "id",
          "type": "uint256"
        },
        {
          "indexed": false,
          "internalType": "string",
          "name": "username",
          "type": "string"
        },
        {
          "indexed": false,
          "internalType": "address payable",
          "name": "walletAddress",
          "type": "address"
        },
        {
          "indexed": false,
          "internalType": "string",
          "name": "ipfsHash",
          "type": "string"
        },
        {
          "indexed": false,
          "internalType": "string",
          "name": "userbio",
          "type": "string"
        },
        {
          "indexed": false,
          "internalType": "uint256",
          "name": "donationsReceived",
          "type": "uint256"
        },
        {
          "indexed": false,
          "internalType": "uint256",
          "name": "supporters",
          "type": "uint256"
        }
      ],
      "name": "CreatorEvent",
      "type": "event"
    },
    {
      "inputs": [],
      "name": "contractBal",
      "outputs": [
        {
          "internalType": "uint256",
          "name": "",
          "type": "uint256"
        }
      ],
      "stateMutability": "view",
      "type": "function"
    },
    {
      "inputs": [],
      "name": "contractOwnerWithdraw",
      "outputs": [],
      "stateMutability": "nonpayable",
      "type": "function"
    },
    {
      "inputs": [],
      "name": "creatorCounter",
      "outputs": [
        {
          "internalType": "uint256",
          "name": "",
          "type": "uint256"
        }
      ],
      "stateMutability": "view",
      "type": "function"
    },
    {
      "inputs": [
        {
          "internalType": "uint256",
          "name": "index",
          "type": "uint256"
        },
        {
          "internalType": "uint256",
          "name": "amount",
          "type": "uint256"
        }
      ],
      "name": "creatorWithdrawTip",
      "outputs": [
        {
          "internalType": "address payable",
          "name": "_creatorAddress",
          "type": "address"
        }
      ],
      "stateMutability": "nonpayable",
      "type": "function"
    },
    {
      "inputs": [
        {
          "internalType": "uint256",
          "name": "index",
          "type": "uint256"
        }
      ],
      "name": "getCreatorBal",
      "outputs": [
        {
          "internalType": "uint256",
          "name": "",
          "type": "uint256"
        }
      ],
      "stateMutability": "view",
      "type": "function"
    },
    {
      "inputs": [],
      "name": "getCreatorCount",
      "outputs": [
        {
          "internalType": "uint256",
          "name": "",
          "type": "uint256"
        }
      ],
      "stateMutability": "view",
      "type": "function"
    },
    {
      "inputs": [
        {
          "internalType": "uint256",
          "name": "index",
          "type": "uint256"
        }
      ],
      "name": "getCreatorInfo",
      "outputs": [
        {
          "internalType": "uint256",
          "name": "id",
          "type": "uint256"
        },
        {
          "internalType": "string",
          "name": "",
          "type": "string"
        },
        {
          "internalType": "string",
          "name": "",
          "type": "string"
        },
        {
          "internalType": "address",
          "name": "",
          "type": "address"
        },
        {
          "internalType": "string",
          "name": "",
          "type": "string"
        },
        {
          "internalType": "uint256",
          "name": "",
          "type": "uint256"
        },
        {
          "internalType": "uint256",
          "name": "",
          "type": "uint256"
        }
      ],
      "stateMutability": "view",
      "type": "function"
    },
    {
      "inputs": [],
      "name": "getCreatorList",
      "outputs": [
        {
          "components": [
            {
              "internalType": "uint256",
              "name": "id",
              "type": "uint256"
            },
            {
              "internalType": "string",
              "name": "username",
              "type": "string"
            },
            {
              "internalType": "string",
              "name": "ipfsHash",
              "type": "string"
            },
            {
              "internalType": "address payable",
              "name": "walletAddress",
              "type": "address"
            },
            {
              "internalType": "string",
              "name": "userbio",
              "type": "string"
            },
            {
              "internalType": "uint256",
              "name": "donationsReceived",
              "type": "uint256"
            },
            {
              "internalType": "uint256",
              "name": "supporters",
              "type": "uint256"
            }
          ],
          "internalType": "struct Coffee.CreatorInfo[]",
          "name": "",
          "type": "tuple[]"
        }
      ],
      "stateMutability": "view",
      "type": "function"
    },
    {
      "inputs": [
        {
          "internalType": "uint256",
          "name": "_index",
          "type": "uint256"
        }
      ],
      "name": "getCreatorObj",
      "outputs": [
        {
          "components": [
            {
              "internalType": "uint256",
              "name": "id",
              "type": "uint256"
            },
            {
              "internalType": "string",
              "name": "username",
              "type": "string"
            },
            {
              "internalType": "string",
              "name": "ipfsHash",
              "type": "string"
            },
            {
              "internalType": "address payable",
              "name": "walletAddress",
              "type": "address"
            },
            {
              "internalType": "string",
              "name": "userbio",
              "type": "string"
            },
            {
              "internalType": "uint256",
              "name": "donationsReceived",
              "type": "uint256"
            },
            {
              "internalType": "uint256",
              "name": "supporters",
              "type": "uint256"
            }
          ],
          "internalType": "struct Coffee.CreatorInfo",
          "name": "",
          "type": "tuple"
        }
      ],
      "stateMutability": "view",
      "type": "function"
    },
    {
      "inputs": [],
      "name": "owner",
      "outputs": [
        {
          "internalType": "address payable",
          "name": "",
          "type": "address"
        }
      ],
      "stateMutability": "view",
      "type": "function"
    },
    {
      "inputs": [
        {
          "internalType": "string",
          "name": "_message",
          "type": "string"
        },
        {
          "internalType": "uint256",
          "name": "_index",
          "type": "uint256"
        }
      ],
      "name": "sendTip",
      "outputs": [],
      "stateMutability": "payable",
      "type": "function"
    },
    {
      "inputs": [
        {
          "internalType": "string",
          "name": "_username",
          "type": "string"
        },
        {
          "internalType": "string",
          "name": "_ipfsHash",
          "type": "string"
        },
        {
          "internalType": "string",
          "name": "_userbio",
          "type": "string"
        }
      ],
      "name": "setCreatorDetail",
      "outputs": [],
      "stateMutability": "nonpayable",
      "type": "function"
    }
  ],
  "bytecode": "0x608060405233600260006101000a81548173ffffffffffffffffffffffffffffffffffffffff021916908373ffffffffffffffffffffffffffffffffffffffff16021790555061211b806100546000396000f3fe6080604052600436106100a75760003560e01c8063c580ec0a11610064578063c580ec0a146101e8578063c92d723114610204578063c9cd30a01461022f578063d9088afc1461025a578063dfe6712e14610271578063e0a57eb81461029c576100a7565b80632516f8e6146100ac5780634af498a2146100ef578063656023e61461012c578063746614a8146101555780638da5cb5b14610192578063c43ad481146101bd575b600080fd5b3480156100b857600080fd5b506100d360048036038101906100ce919061120e565b6102d9565b6040516100e6979695949392919061131b565b60405180910390f35b3480156100fb57600080fd5b506101166004803603810190610111919061120e565b610509565b60405161012391906114c3565b60405180910390f35b34801561013857600080fd5b50610153600480360381019061014e919061161a565b61076f565b005b34801561016157600080fd5b5061017c600480360381019061017791906116c1565b610ab3565b6040516101899190611710565b60405180910390f35b34801561019e57600080fd5b506101a7610cb2565b6040516101b49190611710565b60405180910390f35b3480156101c957600080fd5b506101d2610cd8565b6040516101df919061172b565b60405180910390f35b61020260048036038101906101fd9190611746565b610cde565b005b34801561021057600080fd5b50610219610d9e565b604051610226919061190e565b60405180910390f35b34801561023b57600080fd5b50610244611027565b604051610251919061172b565b60405180910390f35b34801561026657600080fd5b5061026f61102f565b005b34801561027d57600080fd5b50610286611106565b604051610293919061172b565b60405180910390f35b3480156102a857600080fd5b506102c360048036038101906102be919061120e565b611113565b6040516102d0919061172b565b60405180910390f35b6000606080600060606000806000600589815481106102fb576102fa611930565b5b90600052602060002090600702019050806000015481600101826002018360030160009054906101000a900473ffffffffffffffffffffffffffffffffffffffff1684600401856005015486600601548580546103579061198e565b80601f01602080910402602001604051908101604052809291908181526020018280546103839061198e565b80156103d05780601f106103a5576101008083540402835291602001916103d0565b820191906000526020600020905b8154815290600101906020018083116103b357829003601f168201915b505050505095508480546103e39061198e565b80601f016020809104026020016040519081016040528092919081815260200182805461040f9061198e565b801561045c5780601f106104315761010080835404028352916020019161045c565b820191906000526020600020905b81548152906001019060200180831161043f57829003601f168201915b5050505050945082805461046f9061198e565b80601f016020809104026020016040519081016040528092919081815260200182805461049b9061198e565b80156104e85780601f106104bd576101008083540402835291602001916104e8565b820191906000526020600020905b8154815290600101906020018083116104cb57829003601f168201915b50505050509250975097509750975097509750975050919395979092949650565b610511611171565b6005828154811061052557610524611930565b5b90600052602060002090600702016040518060e0016040529081600082015481526020016001820180546105589061198e565b80601f01602080910402602001604051908101604052809291908181526020018280546105849061198e565b80156105d15780601f106105a6576101008083540402835291602001916105d1565b820191906000526020600020905b8154815290600101906020018083116105b457829003601f168201915b505050505081526020016002820180546105ea9061198e565b80601f01602080910402602001604051908101604052809291908181526020018280546106169061198e565b80156106635780601f1061063857610100808354040283529160200191610663565b820191906000526020600020905b81548152906001019060200180831161064657829003601f168201915b505050505081526020016003820160009054906101000a900473ffffffffffffffffffffffffffffffffffffffff1673ffffffffffffffffffffffffffffffffffffffff1673ffffffffffffffffffffffffffffffffffffffff1681526020016004820180546106d29061198e565b80601f01602080910402602001604051908101604052809291908181526020018280546106fe9061198e565b801561074b5780601f106107205761010080835404028352916020019161074b565b820191906000526020600020905b81548152906001019060200180831161072e57829003601f168201915b50505050508152602001600582015481526020016006820154815250509050919050565b600083511161077d57600080fd5b600082511161078b57600080fd5b600081511161079957600080fd5b60008060001515600360003373ffffffffffffffffffffffffffffffffffffffff1673ffffffffffffffffffffffffffffffffffffffff16815260200190815260200160002060009054906101000a900460ff1615151461082f576040517f08c379a000000000000000000000000000000000000000000000000000000000815260040161082690611a0b565b60405180910390fd5b600015156004866040516108439190611a67565b908152602001604051809103902060009054906101000a900460ff161515146108a1576040517f08c379a000000000000000000000000000000000000000000000000000000000815260040161089890611aca565b60405180910390fd5b60056040518060e001604052806108b8600061114d565b81526020018781526020018681526020013373ffffffffffffffffffffffffffffffffffffffff16815260200185815260200184815260200183815250908060018154018082558091505060019003906000526020600020906007020160009091909190915060008201518160000155602082015181600101908161093d9190611c96565b5060408201518160020190816109539190611c96565b5060608201518160030160006101000a81548173ffffffffffffffffffffffffffffffffffffffff021916908373ffffffffffffffffffffffffffffffffffffffff16021790555060808201518160040190816109b09190611c96565b5060a0820151816005015560c0820151816006015550506001600360003373ffffffffffffffffffffffffffffffffffffffff1673ffffffffffffffffffffffffffffffffffffffff16815260200190815260200160002060006101000a81548160ff0219169083151502179055506001600486604051610a319190611a67565b908152602001604051809103902060006101000a81548160ff0219169083151502179055507fdd070d78037abac0130f39b08d4e63b1c8680b7e91e130048e5f04cf439b09d0610a81600061114d565b863387878787604051610a9a9796959493929190611d68565b60405180910390a1610aac600061115b565b5050505050565b60008060058481548110610aca57610ac9611930565b5b9060005260206000209060070201905060008160050154905060008260030160009054906101000a900473ffffffffffffffffffffffffffffffffffffffff1690508460058781548110610b2157610b20611930565b5b90600052602060002090600702016005016000828254610b419190611e1b565b9250508190555081851115610b8b576040517f08c379a0000000000000000000000000000000000000000000000000000000008152600401610b8290611e9b565b60405180910390fd5b8073ffffffffffffffffffffffffffffffffffffffff163373ffffffffffffffffffffffffffffffffffffffff1614610bf9576040517f08c379a0000000000000000000000000000000000000000000000000000000008152600401610bf090611f07565b60405180910390fd5b60008173ffffffffffffffffffffffffffffffffffffffff1686604051610c1f90611f58565b60006040518083038185875af1925050503d8060008114610c5c576040519150601f19603f3d011682016040523d82523d6000602084013e610c61565b606091505b5050905080610ca5576040517f08c379a0000000000000000000000000000000000000000000000000000000008152600401610c9c90611fb9565b60405180910390fd5b8194505050505092915050565b600260009054906101000a900473ffffffffffffffffffffffffffffffffffffffff1681565b60015481565b3460058281548110610cf357610cf2611930565b5b90600052602060002090600702016005016000828254610d139190611fd9565b92505081905550600160058281548110610d3057610d2f611930565b5b90600052602060002090600702016006016000828254610d509190611fd9565b9250508190555060003411610d9a576040517f08c379a0000000000000000000000000000000000000000000000000000000008152600401610d9190612059565b60405180910390fd5b5050565b60606005805480602002602001604051908101604052809291908181526020016000905b8282101561101e57838290600052602060002090600702016040518060e001604052908160008201548152602001600182018054610dff9061198e565b80601f0160208091040260200160405190810160405280929190818152602001828054610e2b9061198e565b8015610e785780601f10610e4d57610100808354040283529160200191610e78565b820191906000526020600020905b815481529060010190602001808311610e5b57829003601f168201915b50505050508152602001600282018054610e919061198e565b80601f0160208091040260200160405190810160405280929190818152602001828054610ebd9061198e565b8015610f0a5780601f10610edf57610100808354040283529160200191610f0a565b820191906000526020600020905b815481529060010190602001808311610eed57829003601f168201915b505050505081526020016003820160009054906101000a900473ffffffffffffffffffffffffffffffffffffffff1673ffffffffffffffffffffffffffffffffffffffff1673ffffffffffffffffffffffffffffffffffffffff168152602001600482018054610f799061198e565b80601f0160208091040260200160405190810160405280929190818152602001828054610fa59061198e565b8015610ff25780601f10610fc757610100808354040283529160200191610ff2565b820191906000526020600020905b815481529060010190602001808311610fd557829003601f168201915b505050505081526020016005820154815260200160068201548152505081526020019060010190610dc2565b50505050905090565b600047905090565b60004790506000600260009054906101000a900473ffffffffffffffffffffffffffffffffffffffff1673ffffffffffffffffffffffffffffffffffffffff168260405161107c90611f58565b60006040518083038185875af1925050503d80600081146110b9576040519150601f19603f3d011682016040523d82523d6000602084013e6110be565b606091505b5050905080611102576040517f08c379a00000000000000000000000000000000000000000000000000000000081526004016110f9906120c5565b60405180910390fd5b5050565b6000600580549050905090565b6000806005838154811061112a57611129611930565b5b906000526020600020906007020190506000816005015490508092505050919050565b600081600001549050919050565b6001816000016000828254019250508190555050565b6040518060e00160405280600081526020016060815260200160608152602001600073ffffffffffffffffffffffffffffffffffffffff1681526020016060815260200160008152602001600081525090565b6000604051905090565b600080fd5b600080fd5b6000819050919050565b6111eb816111d8565b81146111f657600080fd5b50565b600081359050611208816111e2565b92915050565b600060208284031215611224576112236111ce565b5b6000611232848285016111f9565b91505092915050565b611244816111d8565b82525050565b600081519050919050565b600082825260208201905092915050565b60005b83811015611284578082015181840152602081019050611269565b60008484015250505050565b6000601f19601f8301169050919050565b60006112ac8261124a565b6112b68185611255565b93506112c6818560208601611266565b6112cf81611290565b840191505092915050565b600073ffffffffffffffffffffffffffffffffffffffff82169050919050565b6000611305826112da565b9050919050565b611315816112fa565b82525050565b600060e082019050611330600083018a61123b565b818103602083015261134281896112a1565b9050818103604083015261135681886112a1565b9050611365606083018761130c565b818103608083015261137781866112a1565b905061138660a083018561123b565b61139360c083018461123b565b98975050505050505050565b6113a8816111d8565b82525050565b600082825260208201905092915050565b60006113ca8261124a565b6113d481856113ae565b93506113e4818560208601611266565b6113ed81611290565b840191505092915050565b6000611403826112da565b9050919050565b611413816113f8565b82525050565b600060e083016000830151611431600086018261139f565b506020830151848203602086015261144982826113bf565b9150506040830151848203604086015261146382826113bf565b9150506060830151611478606086018261140a565b506080830151848203608086015261149082826113bf565b91505060a08301516114a560a086018261139f565b5060c08301516114b860c086018261139f565b508091505092915050565b600060208201905081810360008301526114dd8184611419565b905092915050565b600080fd5b600080fd5b7f4e487b7100000000000000000000000000000000000000000000000000000000600052604160045260246000fd5b61152782611290565b810181811067ffffffffffffffff82111715611546576115456114ef565b5b80604052505050565b60006115596111c4565b9050611565828261151e565b919050565b600067ffffffffffffffff821115611585576115846114ef565b5b61158e82611290565b9050602081019050919050565b82818337600083830152505050565b60006115bd6115b88461156a565b61154f565b9050828152602081018484840111156115d9576115d86114ea565b5b6115e484828561159b565b509392505050565b600082601f830112611601576116006114e5565b5b81356116118482602086016115aa565b91505092915050565b600080600060608486031215611633576116326111ce565b5b600084013567ffffffffffffffff811115611651576116506111d3565b5b61165d868287016115ec565b935050602084013567ffffffffffffffff81111561167e5761167d6111d3565b5b61168a868287016115ec565b925050604084013567ffffffffffffffff8111156116ab576116aa6111d3565b5b6116b7868287016115ec565b9150509250925092565b600080604083850312156116d8576116d76111ce565b5b60006116e6858286016111f9565b92505060206116f7858286016111f9565b9150509250929050565b61170a816113f8565b82525050565b60006020820190506117256000830184611701565b92915050565b6000602082019050611740600083018461123b565b92915050565b6000806040838503121561175d5761175c6111ce565b5b600083013567ffffffffffffffff81111561177b5761177a6111d3565b5b611787858286016115ec565b9250506020611798858286016111f9565b9150509250929050565b600081519050919050565b600082825260208201905092915050565b6000819050602082019050919050565b600060e0830160008301516117e6600086018261139f565b50602083015184820360208601526117fe82826113bf565b9150506040830151848203604086015261181882826113bf565b915050606083015161182d606086018261140a565b506080830151848203608086015261184582826113bf565b91505060a083015161185a60a086018261139f565b5060c083015161186d60c086018261139f565b508091505092915050565b600061188483836117ce565b905092915050565b6000602082019050919050565b60006118a4826117a2565b6118ae81856117ad565b9350836020820285016118c0856117be565b8060005b858110156118fc57848403895281516118dd8582611878565b94506118e88361188c565b925060208a019950506001810190506118c4565b50829750879550505050505092915050565b600060208201905081810360008301526119288184611899565b905092915050565b7f4e487b7100000000000000000000000000000000000000000000000000000000600052603260045260246000fd5b7f4e487b7100000000000000000000000000000000000000000000000000000000600052602260045260246000fd5b600060028204905060018216806119a657607f821691505b6020821081036119b9576119b861195f565b5b50919050565b7f4164647265737320616c72656164792065786973740000000000000000000000600082015250565b60006119f5601583611255565b9150611a00826119bf565b602082019050919050565b60006020820190508181036000830152611a24816119e8565b9050919050565b600081905092915050565b6000611a418261124a565b611a4b8185611a2b565b9350611a5b818560208601611266565b80840191505092915050565b6000611a738284611a36565b915081905092915050565b7f557365726e616d6520616c726561647920657869737400000000000000000000600082015250565b6000611ab4601683611255565b9150611abf82611a7e565b602082019050919050565b60006020820190508181036000830152611ae381611aa7565b9050919050565b60008190508160005260206000209050919050565b60006020601f8301049050919050565b600082821b905092915050565b600060088302611b4c7fffffffffffffffffffffffffffffffffffffffffffffffffffffffffffffffff82611b0f565b611b568683611b0f565b95508019841693508086168417925050509392505050565b6000819050919050565b6000611b93611b8e611b89846111d8565b611b6e565b6111d8565b9050919050565b6000819050919050565b611bad83611b78565b611bc1611bb982611b9a565b848454611b1c565b825550505050565b600090565b611bd6611bc9565b611be1818484611ba4565b505050565b5b81811015611c0557611bfa600082611bce565b600181019050611be7565b5050565b601f821115611c4a57611c1b81611aea565b611c2484611aff565b81016020851015611c33578190505b611c47611c3f85611aff565b830182611be6565b50505b505050565b600082821c905092915050565b6000611c6d60001984600802611c4f565b1980831691505092915050565b6000611c868383611c5c565b9150826002028217905092915050565b611c9f8261124a565b67ffffffffffffffff811115611cb857611cb76114ef565b5b611cc2825461198e565b611ccd828285611c09565b600060209050601f831160018114611d005760008415611cee578287015190505b611cf88582611c7a565b865550611d60565b601f198416611d0e86611aea565b60005b82811015611d3657848901518255600182019150602085019450602081019050611d11565b86831015611d535784890151611d4f601f891682611c5c565b8355505b6001600288020188555050505b505050505050565b600060e082019050611d7d600083018a61123b565b8181036020830152611d8f81896112a1565b9050611d9e6040830188611701565b8181036060830152611db081876112a1565b90508181036080830152611dc481866112a1565b9050611dd360a083018561123b565b611de060c083018461123b565b98975050505050505050565b7f4e487b7100000000000000000000000000000000000000000000000000000000600052601160045260246000fd5b6000611e26826111d8565b9150611e31836111d8565b9250828203905081811115611e4957611e48611dec565b5b92915050565b7f496e73756666696369656e742062616c00000000000000000000000000000000600082015250565b6000611e85601083611255565b9150611e9082611e4f565b602082019050919050565b60006020820190508181036000830152611eb481611e78565b9050919050565b7f596f7520617265206e6f74207468652063726561746f72000000000000000000600082015250565b6000611ef1601783611255565b9150611efc82611ebb565b602082019050919050565b60006020820190508181036000830152611f2081611ee4565b9050919050565b600081905092915050565b50565b6000611f42600083611f27565b9150611f4d82611f32565b600082019050919050565b6000611f6382611f35565b9150819050919050565b7f4661696c656420746f2073656e64204574686572000000000000000000000000600082015250565b6000611fa3601483611255565b9150611fae82611f6d565b602082019050919050565b60006020820190508181036000830152611fd281611f96565b9050919050565b6000611fe4826111d8565b9150611fef836111d8565b925082820190508082111561200757612006611dec565b5b92915050565b7f496e73756666696369656e742062616c616e6365210000000000000000000000600082015250565b6000612043601583611255565b915061204e8261200d565b602082019050919050565b6000602082019050818103600083015261207281612036565b9050919050565b7f4661696c656420746f2073656e64206574686572000000000000000000000000600082015250565b60006120af601483611255565b91506120ba82612079565b602082019050919050565b600060208201905081810360008301526120de816120a2565b905091905056fea26469706673582212209dc98afa9c44e9732a2b0149cb4b46787f31e214716d26c0ec840a05f664e13164736f6c63430008110033",
  "linkReferences": {},
  "deployedLinkReferences": {}
}